:0400000080310F2814
:100008007E14803120007F08F000042E7008200044
:10001800FF007E10090080311128FB01FC015830D7
:100028008400003085000F30853167258031A0308D
:1000380084000030850050308531672580312030BC
:100048008400013085002030853167257E1020002E
:1000580084316C2CF800F901FA01F401F501F6017C
:10006800F701E82901302000A00020082100A000A5
:100078007808033E8600870101082000A000A1013E
:100088007808023E860087010108A200A301220821
:10009800A300A20120082204F90021082304FA0081
:1000A80006307A0200300319790203185E2821000D
:1000B800A1016E28780886008701423F2000DD00F4
:1000C800780886008701433FDC000130A000200843
:1000D8002100A10002302000A0002008FB00E4015C
:1000E8000130A0002008E5000800F901FA010030FD
:1000F8007A0210300319790203189D287908023E04
:1001080078072000A0002008860087010108A100C8
:100118007908E03E86008701210881000130F9074F
:100128000030FA3D00307A02103003197902031CBE
:10013800822802302000A00020082100A000013001
:100148002000A00020082100A10002302000A0000B
:100158002008FB00E4010130A0002008E5000800A9
:1001680014302000A00020082100A0000330200047
:10017800A00020082100A100200821072000A000DD
:10018800A101A10D2008F6002108F700F901FA01E4
:1001980000307A02103003197902031818295D0813
:1001A800F2005C08F1008531312580317208F500D4
:1001B8007108F40075082000A0007908023EA03EEE
:1001C80086008701200881007408A0007908033E92
:1001D800A03E86008701200881000130DC0700303E
:1001E800DD3D7908023EA03E860087010108A00097
:1001F800A1012008F6072108F73D7908033EA03E33
:10020800860087010108A000A1012008F60721083F
:10021800F73D0230F9070030FA3D00307A0210301D
:1002280003197902031CD3287708A00020082100AD
:10023800B20076082000A00020082100B300143086
:100248002000A0002008FB00E4010130A0002008E5
:10025800E500080004302000A00020082100A000CC
:1002680001302000A00020082100A1000230200059
:10027800A0002008FB00E4010130A0002008E500F0
:100288000130A0002008E000080005302000A00090
:1002980020082100A00001302000A0002008210033
:1002A800A10002302000A0002008FB00E40101307A
:1002B800A0002008E5000130A0002008DF000800A9
:1002C80006302000A00020082100A00001302000F6
:1002D800A00020082100A10002302000A000200872
:1002E800FB00E4010130A0002008E5000130A00077
:1002F8002008E100080007302000A00020082100A5
:10030800A00001302000A00020082100A100023038
:100318002000A0002008FB00E4010130A000200814
:10032800E5000130A0002008E200080006302000A7
:10033800A00020082100A00008302000A00020080C
:100348002100A10020005D08A00020082100A200D3
:1003580020005C08A00020082100A300230820003A
:10036800A000A101210022082000A200A301210071
:10037800200821072000A400A501A50D22082407B4
:10038800A6002308253DA70020082607A800210865
:10039800273DA9002808F9002908FA007A08A000D2
:1003A80020082100A40079082000A00020082100CE
:1003B800A50006302000A0002008FB00E401013061
:1003C800A0002008E5000800780A860087010108D7
:1003D800FF3E031C080084000830040203180800CC
:1003E80085310435213E820008002000CC01CD0172
:1003F800D001D101CE01CF01203086000130870025
:100408002C308400003085002030AA0016001A0025
:10041800AA0B0A2A630803190800E301FC0121005A
:1004280042082000AA00AB012A08CE002B08CF0002
:10043800D001D1014F085102031D242A4E08500251
:1004480003183D2A5008023EC03E86008701010875
:10045800AA0050082C3E860087012A08810050080F
:10046800C03E8600870181010130D0070030D13DB0
:100478001E2A2100C001C101553085316025813116
:10048800AA308531602581312000D001D1014F0883
:100498005102031D512A4E0850020318612A5008C0
:1004A8002C3E8600870101088531602581310130A5
:1004B8002000D0070030D13D4B2AD001D1014E0891
:1004C800FE3EAA00FF304F3DAB002B085102031D32
:1004D8006F2A2A0850020318812A50082C3E8600E9
:1004E80087010108AA00AB012A08CC072B08CD3DDB
:1004F8000130D0070030D13D632A4E08FE3E2C3E25
:10050800860087014D08AB004C08AA002B08AA00FA
:10051800AB012A080106031DBE2A4E08FF3E2C3EE9
:100528008600870101084C06031DBE2AD001D101AF
:10053800003051022030031950020318B62A453002
:10054800AA005008A03E860087012A0881000130D1
:10055800D0070030D13D003051022030031950023D
:10056800031CA32A4E08AA002A08F3002C30803165
:100578002E200800FC308531602520002D08AA00B7
:100588002A082100A000A10102302000AA002A08A0
:10059800FB00E4010130AA002A08E5000800200059
:1005A800911D080024001419F62A941AE22A110849
:1005B8002000D2005208D30024001516941EF62AF3
:1005C800951FEE2A11082000D2005208D3002400FB
:1005D8009513F42A83316F2382318131F9218231D5
:1005E80024001516141D6C2B941A682B8431392499
:1005F80082312000620803191C2B7B08031D1C2B69
:10060800E201DE01E601D401D50100305502FF30D8
:100618000319540203181B2B0130D4070030D53DB1
:1006280000305502FF3003195402031C102B01003F
:1006380020005F080319342B7B08031D342BDF01CE
:100648005D08F2005C08F100E030D2005208F300C7
:100658008331B623823108302000DC070030DD3DCD
:1006680060080319472B7B08031D472BE0015D0831
:10067800F2005C08F1008431F1248231203020003E
:10068800DC070030DD3D61080319682B7B08031D7A
:10069800682BE10191112400951615162000D4014C
:1006A800D50100305502FF30031954020318672B97
:1006B8000130D4070030D53D00305502FF30031912
:1006C8005402031C5C2B002E2400941E6C2B151660
:1006D80020009111080024001108F1007108F300AE
:1006E8007C08031D7B2B55307306031D822B7C036E
:1006F800031D882BAA3073060319882BFC012000E0
:100708001C119A01E601B32B7C08031D8E2B2000D7
:100718009A011C157308F1007C08C03E8600870109
:10072800710881000130F1007108FC0703307C0278
:10073800031CB32B21004208023EF10000300318CD
:100748000130F2007C0871067204031DB32B2000EF
:100758001C119A01E6010130F1007108E300240040
:1007680015160800063072020030031971020318CA
:10077800C12B0030F1000630F2007208230092000D
:1007880071089100951615131515F50110307502AD
:100798000318FA2B75087307F4007408860087019C
:1007A8000108230094007508013E7307F4007408DB
:1007B80086008701010893000E3075020318951210
:1007C800853157258331000000000E30750203186B
:1007D800F22B0130230091070030923D0230F400E3
:1007E8007408F50710307502031CCE2B2300151171
:1007F8000800F3012000911C080091109A010130B3
:10080800F2007208E60719306602031C0800FC01B2
:10081800F3012030730203181E2C7308C03E8600B3
:10082800870181010130F2007208F307203073025A
:10083800031C112C20001C11E60154308531602561
:10084800833149308531602583314D3085316025CC
:1008580083314530853160258331523085316025BB
:100868008331323085316025080024001108F200F8
:100878007208F300200065080319622C7B0803192D
:1008880008006408A03E86008701010885316025BC
:10089800843120006408A03E860087010108853164
:1008A8004E250130F20072082000E4070130FB02F7
:1008B8007B080319E501240015160800FF3085316F
:1008C8004E258431FF308531602524001516080037
:1008D8002000D601D7011330570288300319560279
:1008E8000318812C0130D6070030D73D133057024A
:1008F800883003195602031C762C8431B5248431C0
:100908008531412584318431952484318431D4243E
:10091800843164008231D32284318331FD238431D0
:100928008D2C14303D00910023001E159F15223098
:100938009B009C011E129D179E16053085310B25C4
:1009480084315530853160258431413085316025C9
:1009580084315230853160258431543085316025A9
:1009680008007A3021009900043023008E00FB3003
:1009780024008E0020008E01FF3021008E0023000D
:100988008C0124000C080F398C0025000C08303825
:100998008C0020008C010C11C93021008C0008004B
:1009A80010303D00A0001130A1002400910120006A
:1009B8000E08F2000330F236890BDF2C7208073973
:1009C800090740382400920036309500161417168F
:1009D800971512088531602508000630720200302C
:1009E800031971020318FC2C0030F1000630F200E4
:1009F8007208230092007108910015131516151539
:100A08008531572500000000230015110800F20069
:100A18000430F1007108F300FA30F1007108F400B5
:100A28000130F402031D142D0130F302031D102DB3
:100A38000130F202031908000C2D8031362880316C
:100A480079288031B42881312E2981314929813191
:100A5800642981317F2981319A2972082300920003
:100A68007108910015139512151400000000230059
:100A78001408F2001308F1000800783020009C04E4
:100A880003309C0426309B00210091102000911017
:100A9800E6010800F1002400951371089100951BE8
:100AA8004F2D15160800553023009600AA309600E1
:100AB8009514000000000800F10023009E1C612D21
:100AC80071089A000800640080010131890B682DC3
:020AD8000034E8
:100C00008631022E8731D22F783020009C040330A9
:100C10009C0426309B00210091102000911021009F
:100C2000B9010800F400F601700876020318080004
:100C300076087407F10071088600870181012100A0
:100C40000C160830F1007108F50075080319512ED3
:100C50004230890B292E003220008C160C0E0139EF
:100C6000F1007508FF3E890A362EF135890B352EC5
:100C70007108F20076087407F30073088600870194
:100C8000720881044230890B432E003220008C12FE
:100C90004230890B492E00320130F5027508031DE0
:100CA000282E7608013EF100003003180130F200D2
:100CB0007208803AF30080307302031D612E7008C1
:100CC0007102031C672E8A31202286316A2E8A31F6
:100CD0000B2286310130F1007108F607142E89319C
:100CE000FE2186318631042686318A31972286316B
:100CF0008A317A22863120000C1221000C120B302E
:100D00002000EB002630EA005D30890B852EEA0BCF
:100D1000852EEB0B852E003220000C1664000B1D77
:100D2000ED2E20000C1DED2E0B1101302100DC02F8
:100D30000030DD3B5C0A031DED2E5D0A031DED2E28
:100D40003D30DC000030DD002D082000EB002100EC
:100D50002C082000EA002100AC0A0319AD0A00307B
:100D600020006B023D3003196A02031CED2E0C11AA
:100D700043308931EE2186314C308931EE21863184
:100D80004F308931EE21863153308931EE21863161
:100D900045308931EE21863120308931EE2186318E
:100DA00044308931EE21863143308931EE2186315C
:100DB0002D308931EE21863144308931EE21863162
:100DC00043308931EE2186312100AC01AD01013083
:100DD0002000EA006A082100AE008C31F12486313F
:100DE0008C311C2486318E2E2000E101E201E501C8
:100DF000E601E301E401A0308600013087004130C4
:100E00008400003085002030BF0016001A00BF0BA0
:100E1000052F2100380803190800B8012000ED0152
:100E2000220022082000BF00C0013F08E300400864
:100E3000E400E501E60164086602031D212F630852
:100E4000650203183C2F6508023E203E86000130F3
:100E500087000108BF006508413E860087013F0802
:100E600081006508203E8600013087008101013045
:100E7000E5070030E63D1B2F2200A001A1015530FF
:100E80008931EE218631AA308931EE218631200068
:100E9000E501E60164086602031D502F6308650240
:100EA0000318602F6508413E8600870101088931DB
:100EB000EE21863101302000E5070030E63D4A2F63
:100EC000E501E6016308FE3EBF00FF30643DC0005F
:100ED00040086602031D6E2F3F0865020318802F2D
:100EE0006508413E860087010108BF00C0013F0838
:100EF000E1074008E23D0130E5070030E63D622FA2
:100F00006308FE3E413E860087016208C00061081A
:100F1000BF004008BF00C0013F080106031DBD2FF0
:100F20006308FF3E413E8600870101086106031DFC
:100F3000BD2FE501E601003066022030031965028D
:100F40000318B52F4530BF006508BA3E86008701FB
:100F50003F0881000130E5070030E63D00306602C1
:100F6000203003196502031CA22F6308BF003F084D
:100F7000FC0041308B3181230800FC308931EE21A7
:100F800020004208BF003F082100BA00BB01023028
:100F90002000BF003F08EE00EC010130BF003F0819
:100FA000EF000800E3308400893085002100120042
:100FB000DA001200DB001200DC001200DD0012007B
:100FC000DE002000EC01ED01EE01EF01A030840015
:100FD000003085003A308931E821873120308400A3
:100FE0000130850034308931E8218731A030840018
:100FF0000130850040308931E821200086316F2E94
:1013C600F43401343D340034FF34640080010131CB
:1013D600890BE9290034F00023009E1CEF297008D0
:1013E6009A000800F0002400951370089100951BE0
:1013F600F62915160800D03021009E0001309D0008
:1014060020000C110730210095000B1791150800DC
:1014160021000C1220000C124230890B102A0032D7
:1014260020008C164230890B162A003220008C12BE
:101436004230890B1C2A0032080021000C122000C1
:101446000C164230890B252A003220008C164230B9
:10145600890B2B2A003220008C124230890B312A4C
:1014660000320800F1000430F0007008F200FA3093
:10147600F0007008F3000130F302031D3E2A01302C
:10148600F202031D3A2A0130F10203190800362A36
:1014960020000C168C1621008C120C124230890B7F
:1014A600522A003220000C124230890B582A003290
:1014B60020008C124230890B5E2A0032080021007F
:1014C6000C1220000C124230890B672A00322000D1
:1014D6008C164230890B6D2A003220000C164230E1
:1014E600890B732A003221000C168C160800103066
:1014F6003D00A0001130A1002400910120000E083B
:10150600F1000330F136890B852A7108073909077E
:101516004038240092003630950016141716971599
:1015260012088931EE21080014303D009100230095
:101536001E159F1522309B009C011E129D179E169C
:1015460005308A3135228A3155308931EE218A318A
:1015560041308931EE218A3152308931EE218A318A
:1015660054308931EE21080020003808023E3C073D
:10157600A0002008860087010108031DC42A0C115B
:10158600C52A0C151530A00020082100BA0001302C
:101596002000A00020082100BB0002302000A0008F
:1015A6002008EE00EC010130A0002008EF00080042
:1015B60021000C164230890BDE2A003220008C16E0
:1015C60000300C1A0130F0004230890BE82A003254
:1015D6007008031DF12A20008C12F92A20008C12B3
:1015E6004230890BF42A003220008C164230890BD7
:1015F600FA2A003270080800FA008A314B228A3132
:101606007A358B3152238A318A31DB228A31003A8C
:1016160003190F2BFF300800780803191F2B7808D1
:10162600F9007908F10077088C31A6248A31003A4E
:1016360003191F2BFF3008008A3162220030080090
:10164600F20121000C160830F0007008F300730850
:101656000319502B4230890B2E2B003220008C169A
:101666000C0E0139F0007308FF3E890A3B2BF0355A
:10167600890B3A2B7008F1007108F2044230890B8D
:10168600422B003220008C124230890B482B00324C
:101696000130F3027308031D2D2B72080800F100B8
:1016A60021000C120830F0007008F20072080319CD
:1016B60008000130F0007208FF3E890A632BF035FE
:1016C600890B622B7008710503196C2B20000C1610
:1016D6006E2B20000C124230890B6F2B003220003B
:1016E6008C164230890B752B003220008C1242304A
:1016F600890B7B2B00320130F202592B2000BC00F3
:10170600B801B901AE01AF01BD01BE01BA01BB010D
:10171600B001B101B401B501B601B701B201B3011F
:101726008F31602F0730A00020082100BA00013059
:101736002000A00020082100BB0002302000A000ED
:101746002008EE00EC010130A0002008EF00013077
:10175600A00020082100B700080024001108F100AD
:101766007108F20020006F080319D92B6E080319BF
:1017760008006C08BA3E8600870101088931EE210F
:101786008B3120006C08BA3E86008701010889313A
:10179600F5210130F10071082000EC070130EE025E
:1017A6006E080319EF01240015160800FF30893171
:1017B600F5218B31FF308931EE2124001516080002
:1017C600FB00FA018A314B228B3103147B0D8B31DE
:1017D60052238B318A31DB228B31003A0319F52BE8
:1017E600FF3008008B3123238B31F9007708860000
:1017F6008701790881007808860087010103031DA7
:10180600082C8A3120228B31182C8A310B228B31FD
:101816007808860087010108FF3EF9007908F00084
:101826007708013E863112268B318A3162220030DA
:101836000800F2012000911C080091109A01013065
:10184600F10071082100B90719303902031C08009C
:101856002000ED01F201203072020318402C7208BC
:10186600203E86000130870081010130F1007108B9
:10187600F20720307202031C322C20001C112100BA
:10188600B90154308931EE218C3149308931EE214C
:101896008C314D308931EE218C3145308931EE2144
:1018A6008C3152308931EE218C3132308931EE2142
:1018B600080024001108F0007008F20020006D08EE
:1018C600031D692C55307206031D702C6D03031D14
:1018D600762CAA3072060319762CED011C119A019A
:1018E6002100B901A32C20006D08031D7C2C9A0150
:1018F6001C157208F0006D08203E86000130870036
:10190600700881000130F0007008ED0703306D02A9
:10191600031CA32C22002208023EF000003003180C
:101926000130F10020006D0870067104031DA32C20
:101936001C119A012100B9010130F0007008B800AD
:10194600240015160800F400F50171087502031845
:10195600EF2C21000C120830F2007208F60076080F
:101966000319E22C75087407F200720886008701D5
:101976000130F3007608FF3E890AC22CF335890B45
:10198600C12C730801050319CB2C20000C16CD2C95
:1019960020000C124230890BCE2C003220008C160F
:1019A6004230890BD42C003220008C124230890B35
:1019B600DA2C00320130F6027608031DB52C8A3186
:1019C600DB228C31003A0319EA2CFF300800013083
:1019D600F2007208F507A82C003008002000911DBF
:1019E600080024001419142D941A002D1108FD0066
:1019F6007D082000E70024001516941E142D951F5F
:101A06000C2D1108FD007D082000E7002400951329
:101A1600122D8C315C248C318631F4268C312400D5
:101A26001516141D402D941A3D2D8B31B0238C3183
:101A36002100370803193D2D20006E08031D3D2D9A
:101A46002100B701AE01B9012000E801E90100302B
:101A56006902FF300319680203183C2D0130E807BC
:101A66000030E93D00306902FF3003196802031CAB
:101A7600312D01002400941A15162000911108003A
:101A8600F500F601F701013021009D007508F3000D
:101A96000130F335FF3E031D4C2D7335F4007408F9
:101AA6009D0400000000000021009D1400000000BD
:101AB6000000F601F7011330770288300319760229
:101AC6000318852D21009D18772D1C08F300710839
:101AD60086008701730881001B08F30072088600E0
:101AE600870173088100852D000000000000013089
:101AF600F6070030F73D1330770288300319760277
:101B0600031C652D13307702883003197602031CF7
:101B16000800710886008701810172088600870126
:101B26008101FD308931EE2108002100DC01DD0153
:101B3600AC01AD0106302000A00020082100BA004B
:101B460016302000A00020082100BB000130200034
:101B5600A00020082100BC002E082000A0002008BC
:101B66002100BD003D082000A000A10121003C0885
:101B76002000A200A30121003A083B072000A40090
:101B8600A501A50D22082407A6002308253DA700C8
:101B960020082607A8002108273DA9002808BD001F
:101BA6002908BE003E08A00020082100BE00200033
:101BB6003D08A00020082100BF0006302000A0003C
:101BC6002008EE00EC010130A0002008EF0008001C
:101BD6000530A00020082100BA0017302000A00020
:101BE60020082100BB0089302000A0002008210029
:101BF600BC003C082000A000A10121003A083B07D8
:101C06002000A200A301A30D20082207A40021089A
:101C1600233DA5002408BD002508BE003E08A000FF
:101C260020082100BD0020003D08A000200821005A
:101C3600BE0005302000A0002008EE00EC010130B7
:101C4600A0002008EF0008000730A00020082100AF
:101C5600BA003A302000A00020082100BB00013065
:101C66002000A00020082100BC00BD302000A000FC
:101C76002008F100BE30A1002108F20006308D31A7
:101C860043258D3121003E082000A000A10121003E
:101C96003D082000A200A30121003C082000A4006A
:101CA600A50121003A083B072000A600A701A70DC1
:101CB60024082607A8002508273DA900220828078A
:101CC600AA002308293DAB0020082A07AC002108FA
:101CD6002B3DAD002C08BD002D08BE003E08A0001F
:101CE60020082100BF0020003D08A0002008210098
:101CF600C00007302000A0002008EE00EC010130F3
:101D0600A0002008EF0008003C08860087010108B3
:101D1600FB3EBA00FF3003180030BB003C08023E11
:101D2600860087010108A000A1012008B60021084D
:101D3600B7003C08033E860087010108A000A10108
:101D46002008B4002108B5003B30A000200821007F
:101D5600BA0020003C08033EA0002008F7003A081D
:101D6600A1002108F80036088A31FF228D31003A99
:101D7600031DC42E01302000A00020082100BB0056
:101D8600C62E2100BB0102302000A0002008EE0074
:101D9600EC010130A00020082100B2000130200033
:101DA600A0002008EF0008003C08033E86008701DB
:101DB6000108A000A1012008BA002108BB003C08C8
:101DC600023E860087010108A000A1012008B60096
:101DD6002108B7003A08053EA00020082100BA00F5
:101DE6003C302000A00020082100BB00BD302000B0
:101DF600A0002008F7003A30A1002108F8003608B4
:101E06008B31E3238D31003A03190C2F2100BC01DD
:101E1600122F01302000A00020082100BC003C0841
:101E26002000A000A10121003A083B072000A200E3
:101E3600A301A30D20082207A4002108233DA50025
:101E46002408BD002508BE00B801B9013B083902C7
:101E5600031D2F2F3A0838020318422F3808033E75
:101E6600BA3E860087010108A000A1012008BD072F
:101E76002108BE3D0130B8070030B93D292F3E0884
:101E8600A0003A08033EBA3E86008701200881007A
:101E96003D08A0003A08043EBA3E860087012008A5
:101EA600810021003A082000A0002008EE00EC0185
:101EB6000130A0002008EF0008003C0A86008701D8
:101EC6000108073A03197B2F123A03197D2F033AAB
:101ED6000319982D013A0319EB2D2D3A0319272ED4
:101EE600013A0319872E073A0319D72E7A2F0800CD
:0A1EF6008B31952B8A31B72AFFFFCC
:020000040001F9
:04000E00943FFE1FFE
:00000001FF
